04020070070000000020240701007001BENEFICIARY001MAD20000000000001234520240708   00                                   DONOR NAME                        BENEFICIARY NAME                  007810000112345678901281201000000345678901234567        PAYMENT FOR SERVICES          REF001                                                                                                 100001       
04020070070000000020240702007002BENEFICIARY002MAD20000000000006789020240709   00                                   DONOR NAME                        BENEFICIARY NAME                  007810000112345678901281202000000456789012345678        PAYMENT FOR GOODS             REF002                                                                                                 100002       
04020070070000000020240703007003BENEFICIARY003MAD20000000000008901220240710   00                                   DONOR NAME                        BENEFICIARY NAME                  007810000112345678901281203000000567890123456789        INSURANCE CLAIM               REF003                                                                                                 100003       
04020070070000000020240704007004BENEFICIARY004MAD20000000000004567820240711   00                                   DONOR NAME                        BENEFICIARY NAME                  007810000112345678901281204000000678901234567890        REFUND FOR DAMAGES            REF004                                                                                                 100004       