1000000000000000000020250617150740MAD2  0000000
04020007   00    20250617007   REF005202406MAD20000000002750.00        202406210000                                  1Pôle Juridique                                                                                MA6400060000000000000000        Assistance contentieuse                                                                                                                                                                                           00000000000000000000
04020007   00    20250617007   REF006202406MAD20000000001950.60        202406220000                                  1Agence Casablanca                                                                             MA6400070000000000000000        Rédaction rapport                                                                                                                                                                                                 00000000000000000000
04020007   00    20250617007   REF007202406MAD20000000003100.00        202406230000                                  1Direction Générale Sud                                                                        MA6400080000000000000000        Consultation technique                                                                                                                                                                                            00000000000000000000
04020007   00    20250617007   REF008202406MAD20000000001600.80        202406240000                                  1Direction Régionale Rabat                                                                     MA6400090000000000000000        Avis juridique                                                                                                                                                                                                    00000000000000000000
04020007   00    20250617007   REF009202406MAD20000000001420.40        202406250000                                  1Direction Informatique                                                                        MA6400100000000000000000        Expertise bâtiment                                                                                                                                                                                                00000000000000000000
04020007   00    20250617007   REF010202406MAD20000000002870.00        202406260000                                  1Pôle Juridique                                                                                MA6400110000000000000000        Évaluation sinistre                                                                                                                                                                                               00000000000000000000
04020007   00    20250617007   REF011202406MAD20000000001999.99        202406270000                                  1Agence Casablanca                                                                             MA6400040000000000000000        Prestation médicale                                                                                                                                                                                               00000000000000000000
04020007   00    20250617007   REF012202406MAD20000000001780.45        202406280000                                  1Direction Générale Sud                                                                        MA6400070000000000000000        Audit sécurité                                                                                                                                                                                                    00000000000000000000
04020007   00    20250617007   REF013202406MAD20000000003100.00        202406290000                                  1Direction Informatique                                                                        MA6400050000000000000000        Formation déléguée                                                                                                                                                                                                00000000000000000000
04020007   00    20250617007   REF014202406MAD20000000001345.70        202406300000                                  1Direction Régionale Rabat                                                                     MA6400080000000000000000        Vérification technique                                                                                                                                                                                            00000000000000000000
110000000000000000000000000
